{
  "contractName": "DiceGame",
  "abi": [
    {
      "inputs": [
        {
          "internalType": "uint256",
          "name": "_minimumBet",
          "type": "uint256"
        }
      ],
      "stateMutability": "nonpayable",
      "type": "constructor"
    },
    {
      "anonymous": false,
      "inputs": [
        {
          "indexed": true,
          "internalType": "address",
          "name": "player",
          "type": "address"
        },
        {
          "indexed": false,
          "internalType": "uint256",
          "name": "amount",
          "type": "uint256"
        },
        {
          "indexed": false,
          "internalType": "uint256",
          "name": "prediction",
          "type": "uint256"
        }
      ],
      "name": "BetPlaced",
      "type": "event"
    },
    {
      "anonymous": false,
      "inputs": [
        {
          "indexed": true,
          "internalType": "address",
          "name": "player",
          "type": "address"
        },
        {
          "indexed": false,
          "internalType": "uint256",
          "name": "amount",
          "type": "uint256"
        },
        {
          "indexed": false,
          "internalType": "uint256",
          "name": "prediction",
          "type": "uint256"
        },
        {
          "indexed": false,
          "internalType": "uint256",
          "name": "diceRoll",
          "type": "uint256"
        },
        {
          "indexed": false,
          "internalType": "bool",
          "name": "won",
          "type": "bool"
        }
      ],
      "name": "BetSettled",
      "type": "event"
    },
    {
      "inputs": [],
      "name": "minimumBet",
      "outputs": [
        {
          "internalType": "uint256",
          "name": "",
          "type": "uint256"
        }
      ],
      "stateMutability": "view",
      "type": "function",
      "constant": true
    },
    {
      "inputs": [],
      "name": "owner",
      "outputs": [
        {
          "internalType": "address",
          "name": "",
          "type": "address"
        }
      ],
      "stateMutability": "view",
      "type": "function",
      "constant": true
    },
    {
      "inputs": [
        {
          "internalType": "uint256",
          "name": "_prediction",
          "type": "uint256"
        }
      ],
      "name": "placeBet",
      "outputs": [],
      "stateMutability": "payable",
      "type": "function",
      "payable": true
    },
    {
      "inputs": [],
      "name": "withdrawBalance",
      "outputs": [],
      "stateMutability": "nonpayable",
      "type": "function"
    }
  ],
  "bytecode": "0x608060405234801561001057600080fd5b50604051610ba5380380610ba5833981810160405281019061003291906100ba565b336000806101000a81548173ffffffffffffffffffffffffffffffffffffffff021916908373ffffffffffffffffffffffffffffffffffffffff16021790555080600181905550506100e7565b600080fd5b6000819050919050565b61009781610084565b81146100a257600080fd5b50565b6000815190506100b48161008e565b92915050565b6000602082840312156100d0576100cf61007f565b5b60006100de848285016100a5565b91505092915050565b610aaf806100f66000396000f3fe60806040526004361061003f5760003560e01c806310fe7c48146100445780635fd8c710146100605780638da5cb5b14610077578063c38a8afd146100a2575b600080fd5b61005e600480360381019061005991906104df565b6100cd565b005b34801561006c57600080fd5b5061007561031c565b005b34801561008357600080fd5b5061008c61047a565b604051610099919061054d565b60405180910390f35b3480156100ae57600080fd5b506100b761049e565b6040516100c49190610577565b60405180910390f35b600154341015610112576040517f08c379a000000000000000000000000000000000000000000000000000000000815260040161010990610615565b60405180910390fd5b60018110158015610124575060068111155b610163576040517f08c379a000000000000000000000000000000000000000000000000000000000815260040161015a906106a7565b60405180910390fd5b3373ffffffffffffffffffffffffffffffffffffffff167e1ecf1d0c4d22f324b3ecb9cdf0e5f772bc74ac104e6626f4b3845433d0310534836040516101aa9291906106c7565b60405180910390a26000600160064244336040516020016101cd93929190610759565b6040516020818303038152906040528051906020012060001c6101f091906107c5565b6101fa9190610825565b90506000828214905080156102c35760003373ffffffffffffffffffffffffffffffffffffffff1660023461022f919061087b565b60405161023b90610906565b60006040518083038185875af1925050503d8060008114610278576040519150601f19603f3d011682016040523d82523d6000602084013e61027d565b606091505b50509050806102c1576040517f08c379a00000000000000000000000000000000000000000000000000000000081526004016102b890610967565b60405180910390fd5b505b3373ffffffffffffffffffffffffffffffffffffffff167f7da665bfde4f29b19cadd86b69ed2a7c00aefb9965fd433048b9382f961424173485858560405161030f94939291906109a2565b60405180910390a2505050565b60008054906101000a900473ffffffffffffffffffffffffffffffffffffffff1673ffffffffffffffffffffffffffffffffffffffff163373ffffffffffffffffffffffffffffffffffffffff16146103aa576040517f08c379a00000000000000000000000000000000000000000000000000000000081526004016103a190610a59565b60405180910390fd5b60008060009054906101000a900473ffffffffffffffffffffffffffffffffffffffff1673ffffffffffffffffffffffffffffffffffffffff16476040516103f190610906565b60006040518083038185875af1925050503d806000811461042e576040519150601f19603f3d011682016040523d82523d6000602084013e610433565b606091505b5050905080610477576040517f08c379a000000000000000000000000000000000000000000000000000000000815260040161046e90610967565b60405180910390fd5b50565b60008054906101000a900473ffffffffffffffffffffffffffffffffffffffff1681565b60015481565b600080fd5b6000819050919050565b6104bc816104a9565b81146104c757600080fd5b50565b6000813590506104d9816104b3565b92915050565b6000602082840312156104f5576104f46104a4565b5b6000610503848285016104ca565b91505092915050565b600073ffffffffffffffffffffffffffffffffffffffff82169050919050565b60006105378261050c565b9050919050565b6105478161052c565b82525050565b6000602082019050610562600083018461053e565b92915050565b610571816104a9565b82525050565b600060208201905061058c6000830184610568565b92915050565b600082825260208201905092915050565b7f42657420646f6573206e6f74206d65657420746865206d696e696d756d20626560008201527f7420726571756972656d656e742e000000000000000000000000000000000000602082015250565b60006105ff602e83610592565b915061060a826105a3565b604082019050919050565b6000602082019050818103600083015261062e816105f2565b9050919050565b7f50726564696374696f6e206d757374206265206265747765656e203120616e6460008201527f20362e0000000000000000000000000000000000000000000000000000000000602082015250565b6000610691602383610592565b915061069c82610635565b604082019050919050565b600060208201905081810360008301526106c081610684565b9050919050565b60006040820190506106dc6000830185610568565b6106e96020830184610568565b9392505050565b6000819050919050565b61070b610706826104a9565b6106f0565b82525050565b60008160601b9050919050565b600061072982610711565b9050919050565b600061073b8261071e565b9050919050565b61075361074e8261052c565b610730565b82525050565b600061076582866106fa565b60208201915061077582856106fa565b6020820191506107858284610742565b601482019150819050949350505050565b7f4e487b7100000000000000000000000000000000000000000000000000000000600052601260045260246000fd5b60006107d0826104a9565b91506107db836104a9565b9250826107eb576107ea610796565b5b828206905092915050565b7f4e487b7100000000000000000000000000000000000000000000000000000000600052601160045260246000fd5b6000610830826104a9565b915061083b836104a9565b9250827fffffffffffffffffffffffffffffffffffffffffffffffffffffffffffffffff038211156108705761086f6107f6565b5b828201905092915050565b6000610886826104a9565b9150610891836104a9565b9250817fffffffffffffffffffffffffffffffffffffffffffffffffffffffffffffffff04831182151516156108ca576108c96107f6565b5b828202905092915050565b600081905092915050565b50565b60006108f06000836108d5565b91506108fb826108e0565b600082019050919050565b6000610911826108e3565b9150819050919050565b7f4661696c656420746f2073656e64204574686572000000000000000000000000600082015250565b6000610951601483610592565b915061095c8261091b565b602082019050919050565b6000602082019050818103600083015261098081610944565b9050919050565b60008115159050919050565b61099c81610987565b82525050565b60006080820190506109b76000830187610568565b6109c46020830186610568565b6109d16040830185610568565b6109de6060830184610993565b95945050505050565b7f4f6e6c792074686520636f6e7472616374206f776e65722063616e2063616c6c60008201527f20746869732066756e6374696f6e2e0000000000000000000000000000000000602082015250565b6000610a43602f83610592565b9150610a4e826109e7565b604082019050919050565b60006020820190508181036000830152610a7281610a36565b905091905056fea26469706673582212203a19c9a9b10ae11e469f0c5182e73d8fb33a29954b18f89b077d47689240a61364736f6c634300080d0033",
  "immutableReferences": {},
  "source": "// SPDX-License-Identifier: MIT\npragma solidity ^0.8.0;\n\ncontract DiceGame {\n    address public owner;\n    uint256 public minimumBet;\n\n    // Event that is emitted when a bet is placed\n    event BetPlaced(address indexed player, uint256 amount, uint256 prediction);\n    // Event that is emitted when a bet is settled\n    event BetSettled(address indexed player, uint256 amount, uint256 prediction, uint256 diceRoll, bool won);\n\n    constructor(uint256 _minimumBet) {\n        owner = msg.sender;\n        minimumBet = _minimumBet;\n    }\n\n    // Modifier to restrict function calls to only the contract owner\n    modifier onlyOwner() {\n        require(msg.sender == owner, \"Only the contract owner can call this function.\");\n        _;\n    }\n\n    // Function to place a bet\n    function placeBet(uint256 _prediction) external payable {\n        require(msg.value >= minimumBet, \"Bet does not meet the minimum bet requirement.\");\n        require(_prediction >= 1 && _prediction <= 6, \"Prediction must be between 1 and 6.\");\n\n        // Emit event for the bet\n        emit BetPlaced(msg.sender, msg.value, _prediction);\n\n        // This is a simplified and insecure way of generating a \"random\" number\n        uint256 diceRoll = (uint(keccak256(abi.encodePacked(block.timestamp, block.difficulty, msg.sender))) % 6) + 1;\n\n        bool won = diceRoll == _prediction;\n\n        if (won) {\n            // If the player wins, send them twice the amount they bet\n            (bool sent,) = msg.sender.call{value: msg.value * 2}(\"\");\n            require(sent, \"Failed to send Ether\");\n        }\n\n        // Emit event for bet settlement\n        emit BetSettled(msg.sender, msg.value, _prediction, diceRoll, won);\n    }\n\n    // Function to withdraw contract balance (for owner)\n    function withdrawBalance() external onlyOwner {\n        (bool sent,) = owner.call{value: address(this).balance}(\"\");\n        require(sent, \"Failed to send Ether\");\n    }\n}\n",
  "sourcePath": "/Users/relk/DevOps/relk/dice-game/contracts/DiceGame.sol",
  "compiler": {
    "name": "solc",
    "version": "0.8.13+commit.abaa5c0e.Emscripten.clang"
  },
  "schemaVersion": "3.4.16",
  "updatedAt": "2024-03-22T12:37:03.501Z",
  "networkType": "ethereum",
  "devdoc": {
    "kind": "dev",
    "methods": {},
    "version": 1
  },
  "userdoc": {
    "kind": "user",
    "methods": {},
    "version": 1
  }
}