{
  "contractName": "DiceGame",
  "abi": [
    {
      "inputs": [],
      "stateMutability": "nonpayable",
      "type": "constructor"
    },
    {
      "anonymous": false,
      "inputs": [
        {
          "indexed": false,
          "internalType": "uint256",
          "name": "amount",
          "type": "uint256"
        }
      ],
      "name": "DealerWithdraw",
      "type": "event"
    },
    {
      "anonymous": false,
      "inputs": [
        {
          "indexed": false,
          "internalType": "address",
          "name": "from",
          "type": "address"
        },
        {
          "indexed": false,
          "internalType": "uint256",
          "name": "amount",
          "type": "uint256"
        }
      ],
      "name": "DepositReceived",
      "type": "event"
    },
    {
      "anonymous": false,
      "inputs": [
        {
          "indexed": false,
          "internalType": "address",
          "name": "player",
          "type": "address"
        },
        {
          "indexed": false,
          "internalType": "uint8[4]",
          "name": "diceRolls",
          "type": "uint8[4]"
        },
        {
          "indexed": false,
          "internalType": "uint8",
          "name": "score",
          "type": "uint8"
        }
      ],
      "name": "DiceRolled",
      "type": "event"
    },
    {
      "anonymous": false,
      "inputs": [
        {
          "indexed": false,
          "internalType": "address",
          "name": "winner",
          "type": "address"
        }
      ],
      "name": "GameEnded",
      "type": "event"
    },
    {
      "anonymous": false,
      "inputs": [
        {
          "indexed": false,
          "internalType": "uint256",
          "name": "startBlock",
          "type": "uint256"
        },
        {
          "indexed": false,
          "internalType": "uint256",
          "name": "endBlock",
          "type": "uint256"
        }
      ],
      "name": "GameStarted",
      "type": "event"
    },
    {
      "anonymous": false,
      "inputs": [
        {
          "indexed": false,
          "internalType": "address",
          "name": "player",
          "type": "address"
        }
      ],
      "name": "PlayerJoined",
      "type": "event"
    },
    {
      "inputs": [],
      "name": "dealer",
      "outputs": [
        {
          "internalType": "address",
          "name": "",
          "type": "address"
        }
      ],
      "stateMutability": "view",
      "type": "function",
      "constant": true
    },
    {
      "inputs": [],
      "name": "dealerFeePercent",
      "outputs": [
        {
          "internalType": "uint256",
          "name": "",
          "type": "uint256"
        }
      ],
      "stateMutability": "view",
      "type": "function",
      "constant": true
    },
    {
      "inputs": [],
      "name": "endBlock",
      "outputs": [
        {
          "internalType": "uint256",
          "name": "",
          "type": "uint256"
        }
      ],
      "stateMutability": "view",
      "type": "function",
      "constant": true
    },
    {
      "inputs": [],
      "name": "gameStarted",
      "outputs": [
        {
          "internalType": "bool",
          "name": "",
          "type": "bool"
        }
      ],
      "stateMutability": "view",
      "type": "function",
      "constant": true
    },
    {
      "inputs": [
        {
          "internalType": "uint256",
          "name": "",
          "type": "uint256"
        }
      ],
      "name": "playerAddresses",
      "outputs": [
        {
          "internalType": "address",
          "name": "",
          "type": "address"
        }
      ],
      "stateMutability": "view",
      "type": "function",
      "constant": true
    },
    {
      "inputs": [
        {
          "internalType": "address",
          "name": "",
          "type": "address"
        }
      ],
      "name": "players",
      "outputs": [
        {
          "internalType": "uint8",
          "name": "score",
          "type": "uint8"
        }
      ],
      "stateMutability": "view",
      "type": "function",
      "constant": true
    },
    {
      "inputs": [
        {
          "internalType": "address",
          "name": "",
          "type": "address"
        }
      ],
      "name": "stakes",
      "outputs": [
        {
          "internalType": "uint256",
          "name": "",
          "type": "uint256"
        }
      ],
      "stateMutability": "view",
      "type": "function",
      "constant": true
    },
    {
      "inputs": [],
      "name": "startBlock",
      "outputs": [
        {
          "internalType": "uint256",
          "name": "",
          "type": "uint256"
        }
      ],
      "stateMutability": "view",
      "type": "function",
      "constant": true
    },
    {
      "inputs": [],
      "name": "totalStakes",
      "outputs": [
        {
          "internalType": "uint256",
          "name": "",
          "type": "uint256"
        }
      ],
      "stateMutability": "view",
      "type": "function",
      "constant": true
    },
    {
      "inputs": [],
      "name": "winner",
      "outputs": [
        {
          "internalType": "address",
          "name": "",
          "type": "address"
        }
      ],
      "stateMutability": "view",
      "type": "function",
      "constant": true
    },
    {
      "inputs": [
        {
          "internalType": "uint256",
          "name": "_feePercent",
          "type": "uint256"
        }
      ],
      "name": "setDealerFeePercent",
      "outputs": [],
      "stateMutability": "nonpayable",
      "type": "function"
    },
    {
      "inputs": [],
      "name": "startGame",
      "outputs": [],
      "stateMutability": "nonpayable",
      "type": "function"
    },
    {
      "inputs": [],
      "name": "joinGame",
      "outputs": [],
      "stateMutability": "payable",
      "type": "function",
      "payable": true
    },
    {
      "inputs": [],
      "name": "endGame",
      "outputs": [],
      "stateMutability": "nonpayable",
      "type": "function"
    },
    {
      "inputs": [
        {
          "internalType": "uint8[4]",
          "name": "dice",
          "type": "uint8[4]"
        }
      ],
      "name": "calculateScore",
      "outputs": [
        {
          "internalType": "uint8",
          "name": "",
          "type": "uint8"
        }
      ],
      "stateMutability": "pure",
      "type": "function",
      "constant": true
    },
    {
      "inputs": [],
      "name": "withdraw",
      "outputs": [],
      "stateMutability": "nonpayable",
      "type": "function"
    },
    {
      "inputs": [],
      "name": "deposit",
      "outputs": [],
      "stateMutability": "payable",
      "type": "function",
      "payable": true
    }
  ],
  "bytecode": "0x6080604052600f60065534801561001557600080fd5b50336000806101000a81548173ffffffffffffffffffffffffffffffffffffffff021916908373ffffffffffffffffffffffffffffffffffffffff1602179055506127a7806100656000396000f3fe6080604052600436106100fe5760003560e01c80638f0b9fe511610095578063d0e30db011610064578063d0e30db014610313578063d4f77b1c1461031d578063d65ab5f214610327578063dfbf53ae1461033e578063e2eb41ff14610369576100fe565b80638f0b9fe5146102695780639de2ee2114610294578063b4cd9a2b146102bf578063bf9befb1146102e8576100fe565b806348cd4cb1116100d157806348cd4cb1146101bf5780635e123ce4146101ea57806362653500146102155780636cbc2ded14610252576100fe565b8063083c63231461010357806315c6aee21461012e57806316934fc41461016b5780633ccfd60b146101a8575b600080fd5b34801561010f57600080fd5b506101186103a6565b60405161012591906119f7565b60405180910390f35b34801561013a57600080fd5b5061015560048036038101906101509190611a4d565b6103ac565b6040516101629190611abb565b60405180910390f35b34801561017757600080fd5b50610192600480360381019061018d9190611b02565b6103eb565b60405161019f91906119f7565b60405180910390f35b3480156101b457600080fd5b506101bd610403565b005b3480156101cb57600080fd5b506101d46104fa565b6040516101e191906119f7565b60405180910390f35b3480156101f657600080fd5b506101ff610500565b60405161020c9190611b4a565b60405180910390f35b34801561022157600080fd5b5061023c60048036038101906102379190611ce5565b610513565b6040516102499190611d21565b60405180910390f35b34801561025e57600080fd5b50610267610802565b005b34801561027557600080fd5b5061027e610db9565b60405161028b91906119f7565b60405180910390f35b3480156102a057600080fd5b506102a9610dbf565b6040516102b69190611abb565b60405180910390f35b3480156102cb57600080fd5b506102e660048036038101906102e19190611a4d565b610de3565b005b3480156102f457600080fd5b506102fd610ebe565b60405161030a91906119f7565b60405180910390f35b61031b610ec4565b005b610325610eff565b005b34801561033357600080fd5b5061033c6112ae565b005b34801561034a57600080fd5b50610353611374565b6040516103609190611abb565b60405180910390f35b34801561037557600080fd5b50610390600480360381019061038b9190611b02565b61139a565b60405161039d9190611d21565b60405180910390f35b60085481565b600281815481106103bc57600080fd5b906000526020600020016000915054906101000a900473ffffffffffffffffffffffffffffffffffffffff1681565b60036020528060005260406000206000915090505481565b60008054906101000a900473ffffffffffffffffffffffffffffffffffffffff1673ffffffffffffffffffffffffffffffffffffffff163373ffffffffffffffffffffffffffffffffffffffff1614610491576040517f08c379a000000000000000000000000000000000000000000000000000000000815260040161048890611d99565b60405180910390fd5b60008054906101000a900473ffffffffffffffffffffffffffffffffffffffff1673ffffffffffffffffffffffffffffffffffffffff166108fc479081150290604051600060405180830381858888f193505050501580156104f7573d6000803e3d6000fd5b50565b60075481565b600960009054906101000a900460ff1681565b600061051d611859565b60005b600481101561061657600184826004811061053e5761053d611db9565b5b602002015160ff161015801561056f5750600684826004811061056457610563611db9565b5b602002015160ff1611155b6105ae576040517f08c379a00000000000000000000000000000000000000000000000000000000081526004016105a590611e5a565b60405180910390fd5b8160018583600481106105c4576105c3611db9565b5b60200201516105d39190611ea9565b60ff16600681106105e7576105e6611db9565b5b6020020180518091906105f990611edd565b60ff1660ff1681525050808061060e90611f06565b915050610520565b5060008060005b600681101561072457600484826006811061063b5761063a611db9565b5b602002015160ff160361066c5760046001826106579190611f4e565b6106619190611fa4565b9450505050506107fd565b600384826006811061068157610680611db9565b5b602002015160ff160361069b5760009450505050506107fd565b60028482600681106106b0576106af611db9565b5b602002015160ff16036106de5781806106c890611edd565b92505082806106d690611edd565b935050610711565b60008482600681106106f3576106f2611db9565b5b602002015160ff16111561071057828061070c90611edd565b9350505b5b808061071c90611f06565b91505061061d565b5060048260ff160361073c57600093505050506107fd565b600080600590505b600285826006811061075957610758611db9565b5b602002015160ff16148015610771575060028360ff16145b1561079b5760026001826107859190611f4e565b61078f9190611fa4565b955050505050506107fd565b60018582600681106107b0576107af611db9565b5b602002015160ff16036107d8576001816107ca9190611f4e565b826107d59190611ffe565b91505b60008103156107f45780806107ec90612035565b915050610744565b50809450505050505b919050565b600960009054906101000a900460ff16610851576040517f08c379a0000000000000000000000000000000000000000000000000000000008152600401610848906120aa565b60405180910390fd5b60008054906101000a900473ffffffffffffffffffffffffffffffffffffffff1673ffffffffffffffffffffffffffffffffffffffff163373ffffffffffffffffffffffffffffffffffffffff1614806108ac575060085443115b6108eb576040517f08c379a00000000000000000000000000000000000000000000000000000000081526004016108e290612162565b60405180910390fd5b600160028054905014801561098b575060008054906101000a900473ffffffffffffffffffffffffffffffffffffffff1673ffffffffffffffffffffffffffffffffffffffff16600260008154811061094757610946611db9565b5b9060005260206000200160009054906101000a900473ffffffffffffffffffffffffffffffffffffffff1673ffffffffffffffffffffffffffffffffffffffff1614155b15610b7c576109b960008054906101000a900473ffffffffffffffffffffffffffffffffffffffff166113c5565b6000600160008060009054906101000a900473ffffffffffffffffffffffffffffffffffffffff1673ffffffffffffffffffffffffffffffffffffffff1673ffffffffffffffffffffffffffffffffffffffff16815260200190815260200160002060010160009054906101000a900460ff1690506000600160006002600081548110610a4957610a48611db9565b5b9060005260206000200160009054906101000a900473ffffffffffffffffffffffffffffffffffffffff1673ffffffffffffffffffffffffffffffffffffffff1673ffffffffffffffffffffffffffffffffffffffff16815260200190815260200160002060010160009054906101000a900460ff1690508160ff168160ff1611610af45760008054906101000a900473ffffffffffffffffffffffffffffffffffffffff16610b35565b6002600081548110610b0957610b08611db9565b5b9060005260206000200160009054906101000a900473ffffffffffffffffffffffffffffffffffffffff165b600460006101000a81548173ffffffffffffffffffffffffffffffffffffffff021916908373ffffffffffffffffffffffffffffffffffffffff1602179055505050610d4e565b6000805b600280549050811015610d4b578160ff166001600060028481548110610ba957610ba8611db9565b5b9060005260206000200160009054906101000a900473ffffffffffffffffffffffffffffffffffffffff1673ffffffffffffffffffffffffffffffffffffffff1673ffffffffffffffffffffffffffffffffffffffff16815260200190815260200160002060010160009054906101000a900460ff1660ff161115610d38576001600060028381548110610c4057610c3f611db9565b5b9060005260206000200160009054906101000a900473ffffffffffffffffffffffffffffffffffffffff1673ffffffffffffffffffffffffffffffffffffffff1673ffffffffffffffffffffffffffffffffffffffff16815260200190815260200160002060010160009054906101000a900460ff16915060028181548110610ccc57610ccb611db9565b5b9060005260206000200160009054906101000a900473ffffffffffffffffffffffffffffffffffffffff16600460006101000a81548173ffffffffffffffffffffffffffffffffffffffff021916908373ffffffffffffffffffffffffffffffffffffffff1602179055505b8080610d4390611f06565b915050610b80565b50505b610d56611571565b7f51b77d00d3c0b7e376e9ee146711ceb2c08e58a5dbe38055a618e52109f720c1600460009054906101000a900473ffffffffffffffffffffffffffffffffffffffff16604051610da79190611abb565b60405180910390a1610db7611792565b565b60065481565b60008054906101000a900473ffffffffffffffffffffffffffffffffffffffff1681565b60008054906101000a900473ffffffffffffffffffffffffffffffffffffffff1673ffffffffffffffffffffffffffffffffffffffff163373ffffffffffffffffffffffffffffffffffffffff1614610e71576040517f08c379a0000000000000000000000000000000000000000000000000000000008152600401610e6890611d99565b60405180910390fd5b60648110610eb4576040517f08c379a0000000000000000000000000000000000000000000000000000000008152600401610eab906121f4565b60405180910390fd5b8060068190555050565b60055481565b7f9936746a4565f9766fa768f88f56a7487c78780ac179562773d1c75c5269537e3334604051610ef5929190612214565b60405180910390a1565b600854431115610f44576040517f08c379a0000000000000000000000000000000000000000000000000000000008152600401610f3b90612289565b60405180910390fd5b600960009054906101000a900460ff16610f93576040517f08c379a0000000000000000000000000000000000000000000000000000000008152600401610f8a906122f5565b60405180910390fd5b60008054906101000a900473ffffffffffffffffffffffffffffffffffffffff1673ffffffffffffffffffffffffffffffffffffffff163373ffffffffffffffffffffffffffffffffffffffff1603611021576040517f08c379a000000000000000000000000000000000000000000000000000000000815260040161101890612361565b60405180910390fd5b6000600160003373ffffffffffffffffffffffffffffffffffffffff1673ffffffffffffffffffffffffffffffffffffffff168152602001908152602001600020506004036110a5576040517f08c379a000000000000000000000000000000000000000000000000000000000815260040161109c906123cd565b60405180910390fd5b600034116110e8576040517f08c379a00000000000000000000000000000000000000000000000000000000081526004016110df90612439565b60405180910390fd5b60405180604001604052806040518060800160405280600060ff168152602001600060ff168152602001600060ff168152602001600060ff168152508152602001600060ff16815250600160003373ffffffffffffffffffffffffffffffffffffffff1673ffffffffffffffffffffffffffffffffffffffff16815260200190815260200160002060008201518160000190600461118792919061187b565b5060208201518160010160006101000a81548160ff021916908360ff1602179055509050506002339080600181540180825580915050600190039060005260206000200160009091909190916101000a81548173ffffffffffffffffffffffffffffffffffffffff021916908373ffffffffffffffffffffffffffffffffffffffff16021790555034600360003373ffffffffffffffffffffffffffffffffffffffff1673ffffffffffffffffffffffffffffffffffffffff1681526020019081526020016000208190555034600560008282546112659190611f4e565b925050819055507f31e760aa525306aba638a784082a013b6a1cc0a9a1789f3f22281c0453b10b1f3360405161129b9190611abb565b60405180910390a16112ac336113c5565b565b600960009054906101000a900460ff16156112fe576040517f08c379a00000000000000000000000000000000000000000000000000000000081526004016112f5906124a5565b60405180910390fd5b4360078190555060146007546113149190611f4e565b6008819055506001600960006101000a81548160ff0219169083151502179055507fa2dfaa3573b86004ec9d4d4abe5068d942579c59da4da8cd0d9e45e71a393bc160075460085460405161136a9291906124c5565b60405180910390a1565b600460009054906101000a900473ffffffffffffffffffffffffffffffffffffffff1681565b60016020528060005260406000206000915090508060010160009054906101000a900460ff16905081565b6113cd611915565b60005b60048160ff16101561145c57600160064285846040516020016113f59392919061258d565b6040516020818303038152906040528051906020012060001c61141891906125f9565b6114229190611f4e565b828260ff166004811061143857611437611db9565b5b602002019060ff16908160ff1681525050808061145490611edd565b9150506113d0565b50600061146882610513565b905060008160ff16036114835761147e836113c5565b61156c565b80600160008573ffffffffffffffffffffffffffffffffffffffff1673ffffffffffffffffffffffffffffffffffffffff16815260200190815260200160002060010160006101000a81548160ff021916908360ff16021790555081600160008573ffffffffffffffffffffffffffffffffffffffff1673ffffffffffffffffffffffffffffffffffffffff16815260200190815260200160002060000190600461152f92919061187b565b507f0ca1e05aea25e585cabc2cacac0c483b8cf9fbf55168c7d62b71e536e872b062838383604051611563939291906126d5565b60405180910390a15b505050565b600060646006546005546115859190611fa4565b61158f919061270c565b90506000816005546115a1919061273d565b9050600073ffffffffffffffffffffffffffffffffffffffff16600460009054906101000a900473ffffffffffffffffffffffffffffffffffffffff1673ffffffffffffffffffffffffffffffffffffffff161461166757600460009054906101000a900473ffffffffffffffffffffffffffffffffffffffff1673ffffffffffffffffffffffffffffffffffffffff166108fc829081150290604051600060405180830381858888f19350505050158015611661573d6000803e3d6000fd5b5061178e565b60005b60028054905081101561178c576002818154811061168b5761168a611db9565b5b9060005260206000200160009054906101000a900473ffffffffffffffffffffffffffffffffffffffff1673ffffffffffffffffffffffffffffffffffffffff166108fc60036000600285815481106116e7576116e6611db9565b5b9060005260206000200160009054906101000a900473ffffffffffffffffffffffffffffffffffffffff1673ffffffffffffffffffffffffffffffffffffffff1673ffffffffffffffffffffffffffffffffffffffff168152602001908152602001600020549081150290604051600060405180830381858888f19350505050158015611778573d6000803e3d6000fd5b50808061178490611f06565b91505061166a565b505b5050565b6000600960006101000a81548160ff021916908315150217905550600067ffffffffffffffff8111156117c8576117c7611b7b565b5b6040519080825280602002602001820160405280156117f65781602001602082028036833780820191505090505b506002908051906020019061180c929190611937565b506000600460006101000a81548173ffffffffffffffffffffffffffffffffffffffff021916908373ffffffffffffffffffffffffffffffffffffffff1602179055506000600581905550565b6040518060c00160405280600690602082028036833780820191505090505090565b826004601f016020900481019282156119045791602002820160005b838211156118d557835183826101000a81548160ff021916908360ff1602179055509260200192600101602081600001049283019260010302611897565b80156119025782816101000a81549060ff02191690556001016020816000010492830192600103026118d5565b505b50905061191191906119c1565b5090565b6040518060800160405280600490602082028036833780820191505090505090565b8280548282559060005260206000209081019282156119b0579160200282015b828111156119af5782518260006101000a81548173ffffffffffffffffffffffffffffffffffffffff021916908373ffffffffffffffffffffffffffffffffffffffff16021790555091602001919060010190611957565b5b5090506119bd91906119c1565b5090565b5b808211156119da5760008160009055506001016119c2565b5090565b6000819050919050565b6119f1816119de565b82525050565b6000602082019050611a0c60008301846119e8565b92915050565b6000604051905090565b600080fd5b611a2a816119de565b8114611a3557600080fd5b50565b600081359050611a4781611a21565b92915050565b600060208284031215611a6357611a62611a1c565b5b6000611a7184828501611a38565b91505092915050565b600073ffffffffffffffffffffffffffffffffffffffff82169050919050565b6000611aa582611a7a565b9050919050565b611ab581611a9a565b82525050565b6000602082019050611ad06000830184611aac565b92915050565b611adf81611a9a565b8114611aea57600080fd5b50565b600081359050611afc81611ad6565b92915050565b600060208284031215611b1857611b17611a1c565b5b6000611b2684828501611aed565b91505092915050565b60008115159050919050565b611b4481611b2f565b82525050565b6000602082019050611b5f6000830184611b3b565b92915050565b600080fd5b6000601f19601f8301169050919050565b7f4e487b7100000000000000000000000000000000000000000000000000000000600052604160045260246000fd5b611bb382611b6a565b810181811067ffffffffffffffff82111715611bd257611bd1611b7b565b5b80604052505050565b6000611be5611a12565b9050611bf18282611baa565b919050565b600067ffffffffffffffff821115611c1157611c10611b7b565b5b602082029050919050565b600080fd5b600060ff82169050919050565b611c3781611c21565b8114611c4257600080fd5b50565b600081359050611c5481611c2e565b92915050565b6000611c6d611c6884611bf6565b611bdb565b90508060208402830185811115611c8757611c86611c1c565b5b835b81811015611cb05780611c9c8882611c45565b845260208401935050602081019050611c89565b5050509392505050565b600082601f830112611ccf57611cce611b65565b5b6004611cdc848285611c5a565b91505092915050565b600060808284031215611cfb57611cfa611a1c565b5b6000611d0984828501611cba565b91505092915050565b611d1b81611c21565b82525050565b6000602082019050611d366000830184611d12565b92915050565b600082825260208201905092915050565b7f4f6e6c7920746865206465616c65722063616e2063616c6c20746869732e0000600082015250565b6000611d83601e83611d3c565b9150611d8e82611d4d565b602082019050919050565b60006020820190508181036000830152611db281611d76565b9050919050565b7f4e487b7100000000000000000000000000000000000000000000000000000000600052603260045260246000fd5b7f446963652076616c7565206d757374206265206265747765656e203120616e6460008201527f2036000000000000000000000000000000000000000000000000000000000000602082015250565b6000611e44602283611d3c565b9150611e4f82611de8565b604082019050919050565b60006020820190508181036000830152611e7381611e37565b9050919050565b7f4e487b7100000000000000000000000000000000000000000000000000000000600052601160045260246000fd5b6000611eb482611c21565b9150611ebf83611c21565b925082821015611ed257611ed1611e7a565b5b828203905092915050565b6000611ee882611c21565b915060ff8203611efb57611efa611e7a565b5b600182019050919050565b6000611f11826119de565b91507fffffffffffffffffffffffffffffffffffffffffffffffffffffffffffffffff8203611f4357611f42611e7a565b5b600182019050919050565b6000611f59826119de565b9150611f64836119de565b9250827fffffffffffffffffffffffffffffffffffffffffffffffffffffffffffffffff03821115611f9957611f98611e7a565b5b828201905092915050565b6000611faf826119de565b9150611fba836119de565b9250817fffffffffffffffffffffffffffffffffffffffffffffffffffffffffffffffff0483118215151615611ff357611ff2611e7a565b5b828202905092915050565b600061200982611c21565b915061201483611c21565b92508260ff0382111561202a57612029611e7a565b5b828201905092915050565b6000612040826119de565b91506000820361205357612052611e7a565b5b600182039050919050565b7f47616d65206e6f7420696e2070726f67726573732e0000000000000000000000600082015250565b6000612094601583611d3c565b915061209f8261205e565b602082019050919050565b600060208201905081810360008301526120c381612087565b9050919050565b7f4f6e6c7920746865206465616c65722063616e20656e64207468652067616d6560008201527f206561726c79206f7220776169742074696c6c2074686520656e6420626c6f6360208201527f6b2e000000000000000000000000000000000000000000000000000000000000604082015250565b600061214c604283611d3c565b9150612157826120ca565b606082019050919050565b6000602082019050818103600083015261217b8161213f565b9050919050565b7f4665652070657263656e74206d757374206265206c657373207468616e20313060008201527f3000000000000000000000000000000000000000000000000000000000000000602082015250565b60006121de602183611d3c565b91506121e982612182565b604082019050919050565b6000602082019050818103600083015261220d816121d1565b9050919050565b60006040820190506122296000830185611aac565b61223660208301846119e8565b9392505050565b7f5468652067616d6520706572696f642068617320656e6465642e000000000000600082015250565b6000612273601a83611d3c565b915061227e8261223d565b602082019050919050565b600060208201905081810360008301526122a281612266565b9050919050565b7f47616d6520686173206e6f7420737461727465642e0000000000000000000000600082015250565b60006122df601583611d3c565b91506122ea826122a9565b602082019050919050565b6000602082019050818103600083015261230e816122d2565b9050919050565b7f4465616c65722063616e6e6f74206a6f696e207468652067616d652e00000000600082015250565b600061234b601c83611d3c565b915061235682612315565b602082019050919050565b6000602082019050818103600083015261237a8161233e565b9050919050565b7f506c6179657220616c7265616479206a6f696e65642e00000000000000000000600082015250565b60006123b7601683611d3c565b91506123c282612381565b602082019050919050565b600060208201905081810360008301526123e6816123aa565b9050919050565b7f5374616b65206d7573742062652067726561746572207468616e203000000000600082015250565b6000612423601c83611d3c565b915061242e826123ed565b602082019050919050565b6000602082019050818103600083015261245281612416565b9050919050565b7f47616d652068617320616c726561647920737461727465642e00000000000000600082015250565b600061248f601983611d3c565b915061249a82612459565b602082019050919050565b600060208201905081810360008301526124be81612482565b9050919050565b60006040820190506124da60008301856119e8565b6124e760208301846119e8565b9392505050565b6000819050919050565b612509612504826119de565b6124ee565b82525050565b60008160601b9050919050565b60006125278261250f565b9050919050565b60006125398261251c565b9050919050565b61255161254c82611a9a565b61252e565b82525050565b60008160f81b9050919050565b600061256f82612557565b9050919050565b61258761258282611c21565b612564565b82525050565b600061259982866124f8565b6020820191506125a98285612540565b6014820191506125b98284612576565b600182019150819050949350505050565b7f4e487b7100000000000000000000000000000000000000000000000000000000600052601260045260246000fd5b6000612604826119de565b915061260f836119de565b92508261261f5761261e6125ca565b5b828206905092915050565b600060049050919050565b600081905092915050565b6000819050919050565b61265381611c21565b82525050565b6000612665838361264a565b60208301905092915050565b6000602082019050919050565b6126878161262a565b6126918184612635565b925061269c82612640565b8060005b838110156126cd5781516126b48782612659565b96506126bf83612671565b9250506001810190506126a0565b505050505050565b600060c0820190506126ea6000830186611aac565b6126f7602083018561267e565b61270460a0830184611d12565b949350505050565b6000612717826119de565b9150612722836119de565b925082612732576127316125ca565b5b828204905092915050565b6000612748826119de565b9150612753836119de565b92508282101561276657612765611e7a565b5b82820390509291505056fea264697066735822122007419a56e06126777d1a01adab820f9df574879585bc8d75d17ab3853e5cc98764736f6c634300080d0033",
  "immutableReferences": {},
  "source": "// SPDX-License-Identifier: MIT\npragma solidity ^0.8.0;\n\ncontract DiceGame {\n    struct Player {\n        uint8[4] diceRolls;\n        uint8 score;\n    }\n\n    address public dealer;\n    mapping(address => Player) public players;\n    address[] public playerAddresses;\n    mapping(address => uint256) public stakes;\n    address public winner;\n    uint256 public totalStakes;\n    uint256 public dealerFeePercent = 15; // Initial dealer fee set to 15%\n    uint256 public startBlock;\n    uint256 public endBlock;\n    bool public gameStarted;\n\n    event GameStarted(uint256 startBlock, uint256 endBlock);\n    event PlayerJoined(address player);\n    event GameEnded(address winner);\n    event DiceRolled(address player, uint8[4] diceRolls, uint8 score);\n    event DealerWithdraw(uint256 amount);\n    event DepositReceived(address from, uint256 amount);\n\n    constructor() {\n        dealer = msg.sender;\n    }\n\n    modifier onlyDealer() {\n        require(msg.sender == dealer, \"Only the dealer can call this.\");\n        _;\n    }\n\n    modifier withinGamePeriod() {\n        require(block.number <= endBlock, \"The game period has ended.\");\n        _;\n    }\n\n    // Function to set the dealer fee percentage, only callable by the dealer\n    function setDealerFeePercent(uint256 _feePercent) external onlyDealer {\n        require(_feePercent < 100, \"Fee percent must be less than 100\");\n        dealerFeePercent = _feePercent;\n    }\n\n    // Allows anyone to start the game\n    function startGame() external {\n        require(!gameStarted, \"Game has already started.\");\n        startBlock = block.number;\n        endBlock = startBlock + 20; // Set the end block to current block + 20\n        gameStarted = true;\n        emit GameStarted(startBlock, endBlock);\n    }\n\n    // Players join the game by depositing their stake\n    function joinGame() external payable withinGamePeriod {\n        require(gameStarted, \"Game has not started.\");\n        require(msg.sender != dealer, \"Dealer cannot join the game.\");\n        require(\n            players[msg.sender].diceRolls.length != 0,\n            \"Player already joined.\"\n        );\n        require(msg.value > 0, \"Stake must be greater than 0\");\n\n        players[msg.sender] = Player({diceRolls: [0, 0, 0, 0], score: 0});\n        playerAddresses.push(msg.sender);\n        stakes[msg.sender] = msg.value;\n        totalStakes += msg.value;\n        emit PlayerJoined(msg.sender);\n\n        rollDiceFor(msg.sender); // Generate dice roll results for the player\n    }\n\n    // Generate dice roll results for a player\n    function rollDiceFor(address playerAddress) internal {\n        uint8[4] memory diceRolls;\n\n        for (uint8 i = 0; i < diceRolls.length; i++) {\n            // Randomly generate dice roll number, range 1 to 6\n            diceRolls[i] = uint8(\n                (uint256(\n                    keccak256(\n                        abi.encodePacked(block.timestamp, playerAddress, i)\n                    )\n                ) % 6) + 1\n            );\n        }\n        uint8 score = calculateScore(diceRolls);\n        // if score is 0, re-roll the dices\n        if (score == 0) {\n            rollDiceFor(playerAddress);\n        } else {\n            players[playerAddress].score = score;\n            players[playerAddress].diceRolls = diceRolls;\n            emit DiceRolled(playerAddress, diceRolls, score);\n        }\n    }\n\n    // End the game, determine the winner and finalize payout\n    function endGame() public {\n        require(gameStarted, \"Game not in progress.\");\n        require(\n            msg.sender == dealer || block.number > endBlock,\n            \"Only the dealer can end the game early or wait till the end block.\"\n        );\n\n        // If there is only one player, they gamble directly against the dealer\n        if (playerAddresses.length == 1 && playerAddresses[0] != dealer) {\n            // The dealer also rolls dice and calculates score\n            rollDiceFor(dealer);\n            uint8 dealerScore = players[dealer].score;\n            uint8 playerScore = players[playerAddresses[0]].score;\n\n            // Decide the winner\n            winner = playerScore > dealerScore ? playerAddresses[0] : dealer;\n        } else {\n            // If there are multiple players, use the original logic to determine the winner\n            uint8 highestScore = 0;\n            for (uint i = 0; i < playerAddresses.length; i++) {\n                if (players[playerAddresses[i]].score > highestScore) {\n                    highestScore = players[playerAddresses[i]].score;\n                    winner = playerAddresses[i];\n                }\n            }\n        }\n\n        // Calculate dealer fee and finalize payout\n        finalizePayout();\n        emit GameEnded(winner);\n\n        // Reset game state\n        resetGame();\n    }\n\n    function finalizePayout() private {\n        uint256 dealerFee = (totalStakes * dealerFeePercent) / 100;\n        uint256 payout = totalStakes - dealerFee;\n\n        if (winner != address(0)) {\n            payable(winner).transfer(payout);\n        } else {\n            // In case of a draw, refund all stakes\n            for (uint i = 0; i < playerAddresses.length; i++) {\n                payable(playerAddresses[i]).transfer(\n                    stakes[playerAddresses[i]]\n                );\n            }\n        }\n    }\n\n    function calculateScore(uint8[4] memory dice) public pure returns (uint8) {\n        // \n        uint8[6] memory counts;\n        for (uint i = 0; i < dice.length; i++) {\n            require(\n                dice[i] >= 1 && dice[i] <= 6,\n                \"Dice value must be between 1 and 6\"\n            );\n            counts[dice[i] - 1]++;\n        }\n\n        uint8 uniqueValues = 0; // \n        uint8 pairCounts = 0; // \n        for (uint i = 0; i < counts.length; i++) {\n            if (counts[i] == 4) {\n                return uint8((i + 1) * 4); // \n            } else if (counts[i] == 3) {\n                return 0; // \n            } else if (counts[i] == 2) {\n                pairCounts++;\n                uniqueValues++;\n            } else if (counts[i] > 0) {\n                uniqueValues++;\n            }\n        }\n\n        // \n        if (uniqueValues == 4) {\n            return 0; // \n        }\n\n        // \n        uint8 score = 0;\n        for (uint i = 5; ; i--) {\n            if (counts[i] == 2 && pairCounts == 2) {\n                // \n                return uint8((i + 1) * 2);\n            } else if (counts[i] == 1) {\n                //\n                score += uint8(i + 1);\n            }\n            if (i == 0) {\n                // When i is equal to 0 and the loop tries to decrement i, it would cause an underflow\n                // To prevent this, we break the loop when i is 0\n                break;\n            }\n        }\n        return score;\n    }\n\n    // Helper function: calculate the maximum of two numbers\n    function max(uint8 a, uint8 b) private pure returns (uint8) {\n        return a > b ? a : b;\n    }\n\n    // Dealer withdraws the fee\n    function withdraw() external onlyDealer {\n        payable(dealer).transfer(address(this).balance);\n    }\n\n    // Allows anyone to deposit to the contract\n    function deposit() external payable {\n        emit DepositReceived(msg.sender, msg.value);\n    }\n\n    // Resets the game state\n    function resetGame() private {\n        gameStarted = false;\n        playerAddresses = new address[](0);\n        winner = address(0);\n        totalStakes = 0;\n    }\n}\n",
  "sourcePath": "/Users/relk/DevOps/relk/solidity-dice-game/contracts/DiceGame.sol",
  "compiler": {
    "name": "solc",
    "version": "0.8.13+commit.abaa5c0e.Emscripten.clang"
  },
  "schemaVersion": "3.4.16",
  "updatedAt": "2024-04-10T14:41:58.440Z",
  "networkType": "ethereum",
  "devdoc": {
    "kind": "dev",
    "methods": {},
    "version": 1
  },
  "userdoc": {
    "kind": "user",
    "methods": {},
    "version": 1
  }
}